:100000000C9479000C94E3010C9496000C949600E7
:100010000C9496000C9496000C9496000C94960008
:100020000C9496000C9496000C9496000C949600F8
:100030000C9496000C9496000C9496000C949600E8
:100040000C9496000C9496000C9496000C949600D8
:100050000C9496000C9496000C9496000C949600C8
:100060000C9496000C9496000403090412036F008C
:1000700062006400650076002E00610074000C03CD
:100080004D006F0075007300650012011001000043
:100090000008C016E8030001010200010902220065
:1000A000010100800A090400000103000000092189
:1000B00001010001223400070581030800640501E5
:1000C0000902A1010901A10005091901290315006F
:1000D00025019503750181029501750581030501CF
:1000E0000930093109381581257F75089503810686
:1000F000C0C011241FBECFEFD8E0DEBFCDBF12E0DD
:10010000A0E0B1E0E2E6F7E002C005900D92A6376C
:10011000B107D9F712E0A6E7B2E001C01D92A23BF9
:10012000B107E1F70E9440030C94AF030C94000068
:100130001F93162F2091870224FF07C02091880269
:1001400038E823272093880203C02AE520938702FA
:10015000212FDC01E9E8F2E08D9181932150121604
:10016000DCF389E892E0612F0E94DF011C5F1093AD
:1001700087021F9108951F93CF93DF938091980278
:10018000835087FDA4C090919502209194022D3256
:1001900009F09BC0883009F098C0CCE0D0E0C91BC2
:1001A000D109C456DD4F83EC80937C028AE58093AD
:1001B0000001109276028881807621F0CE010E94A3
:1001C0001D037AC09A81109285028981882331F4B7
:1001D0001092860225E832E082E06AC0853019F488
:1001E0009093990262C0863009F049C08B818130BA
:1001F00019F48AE890E01AC0823041F48CE990E06A
:10020000909397028093960282E235C08330F1F496
:10021000992341F488E690E09093970280939602A8
:1002200084E029C0913041F48CE690E090939702ED
:100230008093960282E11FC09230E1F48EE790E055
:1002400090939702809396028CE015C0813241F41E
:100250008EEA90E0909397028093960289E00BC01B
:10026000823241F48EEB90E0909397028093960255
:1002700084E301C080E090E4909376021DC0883052
:1002800069F0893019F490939B020FC08A3049F0CD
:100290008B3059F48BE48093880207C02BE932E05D
:1002A00002C025E832E081E003C025E832E080E0CA
:1002B00030939702209396029F81992321F49E8187
:1002C000981708F4892F8093010110929802809169
:1002D000000184FF44C0809101018F3F09F43FC0B9
:1002E000182F893008F018E0811B8093010180915C
:1002F0007C0298E8892780937C02112319F1809170
:100300009602909197022091760226FF0AC0FC0186
:10031000212FADE7B2E034913D9331962150D9F7CA
:1003200008C0DC01212FEDE7F2E03D91319321502F
:10033000E1F70196212F2150820F911D9093970292
:10034000809396028DE792E0612F0E94DF011C5F8F
:100350001C3019F08FEF809301011093000184E1AC
:1003600099B1947131F48150D9F710929902109299
:100370009302DF91CF911F910895E9E6F0E080812B
:1003800082608083E89A8BE4809388028AE5809378
:1003900087020895A82FB92F80E090E041E050EA4D
:1003A000609530E009C02D9182279795879510F0D0
:1003B00084279527305EC8F36F5FA8F30895EADFBE
:1003C0008D939D930895CF93CFB7CF93C3954C9BB7
:1003D000E9F74C9B09C04C9B07C04C9B05C04C9B4C
:1003E00003C04C9B01C0A3C0DF93C0919502DD27E1
:1003F000C456DD4F4C9B02C0DF91EBCF2F930F9380
:100400001F9309B12FEF04FB20F94F933F9319B1CC
:100410004FEF012704FB21F93BE031C04E7F012F54
:1004200019B1216028C0102F4D7F2260000009B152
:1004300029C04B7F2460012F000019B12BC019B1D6
:10044000477F28602AC04F7E09B120612CC04F7DB4
:1004500019B120622FC04F7B09B1206432C04227FE
:1004600009B149934FEF0000102714FB20F919B18F
:100470001471C9F1297F91F2012704FB21F909B117
:10048000237F89F2315058F1102714FB22F919B15A
:10049000277E79F2012704FB23F92F7C81F209B131
:1004A000102714FB24F92F7971F200C019B101272C
:1004B00004FB25F92F7359F200C009B1102714FB72
:1004C00026F9223040F200C019B1012704FB27F9B8
:1004D000243028F64F77206819B10000F9CF11E0D9
:1004E0001CBB002719C03B503195C31BD04011E005
:1004F0001CBB0881033CF9F00B34E9F02091930216
:100500001981110F1213EDCF4A81441F093641F1B1
:100510000D3211F0013E29F700939A023F914F915D
:100520001F910F912F91DF91CCB3C0FD4FCFCF9191
:10053000CFBFCF91189520919A02222379F3109181
:100540009802112369F534306AF1309398022093B0
:100550009402109195023BE0311B3093950222C02A
:10056000009198020130E4F40AE54F7049F43091AB
:10057000000134FD19C000930001CCE7D2E018C09F
:100580003091870234FD10C000938702C8E8D2E0A2
:100590000FC02795A8F45150A9F4220F0000F9CFFD
:1005A0004AE503C042ED01C0432FC4E1D0E032E090
:1005B0001AB114615C9A1AB90BB120E414E15F938B
:1005C000012756E00BB9279520F4515021F4220F52
:1005D000F9CF012756E000003B5A0BB9D0F227951E
:1005E00028F4515029F4220F0000F9CF012756E0DA
:1005F00027950BB920F4515021F4220FF9CF012790
:1006000056E0299133230BB921F60B7E1091990204
:10061000110FC651D0400BB911F01093930211E0A5
:100620001CBB00611AB11B7E402F4B7E5F9100C046
:1006300000C00BB91AB94BB971CFFC01808180762B
:100640008032D1F48181813041F487E792E0909348
:1006500097028093960284E00895823041F48BE7FC
:1006600092E0909397028093960281E008958A30F9
:1006700029F4838180937B0280E0089580E00895CF
:100680002EE088E190E00FB6F894A8958093600082
:100690000FBE209360000E94BD01549A80E007C005
:1006A000A895E7EBFBE03197F1F700C0000081501F
:1006B000B9F75498789401E010E0C0E0D0E04EE340
:1006C000E42EF12CA8950E94BB008091870284FF44
:1006D000F9CFFE01EE0FFF1FEC0FFD1FEE0FFF1F06
:1006E000EE5FFE4F84819581081719076CF0CE01EB
:1006F0000196B7010E949B03C82EE6016E01D92E18
:10070000E60101E010E002C00F5F1F4FFE01EE0F97
:10071000FF1FEC0FFD1FEE0FFF1FEE5FFE4F8081EE
:100720008093780282818093790287E792E064E087
:100730000E949800C7CFAA1BBB1B51E107C0AA1F8C
:10074000BB1FA617B70710F0A61BB70B881F991F72
:100750005A95A9F780959095BC01CD010895F8941C
:02076000FFCFC9
:100762005AFF9CFF640014003200CEFF0100020019
:1007720000001E00FEFF00001E000000FEFF190028
:10078200020000001E00FEFF00001E000000FEFF2F
:100792001900020000001E00000000000A00020012
:1007A200000014000000020032000000FEFF3200D0
:1007B2000100020032000000FEFF320000000000D3
:1007C2000A00020000001400020000001E000000E7
:1007D20002001900FEFF00001E00000002001900C6
:1007E200020000001E00000000000A0002000000DB
:1007F20014000000FEFF1900020000001E000000AD
:1008020002001900FEFF00001E000000FEFF320081
:10081200020000001900000000000A0002000000AF
:100822001400020000001E00000002001900FEFF7A
:1008320000001E00000002001900020000001E005D
:10084200000000000A000200000014000000FEFF89
:100852003200020002000F000200FEFF0F00000043
:1008620002003200000000000A0002000000140032
:100872000000FEFF3200000000000A00020000003B
:1008820014000000020032000000FEFF1900020006
:1008920000001E00FEFF00001E000000FEFF190007
:1008A200020000001E0000000200320000000000F2
:1008B2000A000200000014000000FEFF32000000E7
:1008C20002003200020000001E000000FEFF3200A3
:0608D2000000000014000C
:00000001FF
